{
  "contractName": "Dex",
  "abi": [
    {
      "anonymous": false,
      "inputs": [
        {
          "indexed": true,
          "internalType": "address",
          "name": "previousOwner",
          "type": "address"
        },
        {
          "indexed": true,
          "internalType": "address",
          "name": "newOwner",
          "type": "address"
        }
      ],
      "name": "OwnershipTransferred",
      "type": "event"
    },
    {
      "inputs": [
        {
          "internalType": "bytes32",
          "name": "ticker",
          "type": "bytes32"
        },
        {
          "internalType": "address",
          "name": "tokenAddress",
          "type": "address"
        }
      ],
      "name": "addToken",
      "outputs": [],
      "stateMutability": "nonpayable",
      "type": "function"
    },
    {
      "inputs": [
        {
          "internalType": "address",
          "name": "",
          "type": "address"
        },
        {
          "internalType": "bytes32",
          "name": "",
          "type": "bytes32"
        }
      ],
      "name": "balances",
      "outputs": [
        {
          "internalType": "uint256",
          "name": "",
          "type": "uint256"
        }
      ],
      "stateMutability": "view",
      "type": "function",
      "constant": true
    },
    {
      "inputs": [
        {
          "internalType": "uint256",
          "name": "amount",
          "type": "uint256"
        },
        {
          "internalType": "bytes32",
          "name": "ticker",
          "type": "bytes32"
        }
      ],
      "name": "deposit",
      "outputs": [
        {
          "internalType": "uint256",
          "name": "",
          "type": "uint256"
        }
      ],
      "stateMutability": "payable",
      "type": "function",
      "payable": true
    },
    {
      "inputs": [],
      "name": "depositEth",
      "outputs": [],
      "stateMutability": "payable",
      "type": "function",
      "payable": true
    },
    {
      "inputs": [],
      "name": "nextOrderId",
      "outputs": [
        {
          "internalType": "uint256",
          "name": "",
          "type": "uint256"
        }
      ],
      "stateMutability": "view",
      "type": "function",
      "constant": true
    },
    {
      "inputs": [
        {
          "internalType": "bytes32",
          "name": "",
          "type": "bytes32"
        },
        {
          "internalType": "uint256",
          "name": "",
          "type": "uint256"
        },
        {
          "internalType": "uint256",
          "name": "",
          "type": "uint256"
        }
      ],
      "name": "orderBook",
      "outputs": [
        {
          "internalType": "uint256",
          "name": "id",
          "type": "uint256"
        },
        {
          "internalType": "address",
          "name": "trader",
          "type": "address"
        },
        {
          "internalType": "enum Dex.Side",
          "name": "side",
          "type": "uint8"
        },
        {
          "internalType": "bytes32",
          "name": "ticker",
          "type": "bytes32"
        },
        {
          "internalType": "uint256",
          "name": "amount",
          "type": "uint256"
        },
        {
          "internalType": "uint256",
          "name": "price",
          "type": "uint256"
        },
        {
          "internalType": "uint256",
          "name": "filled",
          "type": "uint256"
        }
      ],
      "stateMutability": "view",
      "type": "function",
      "constant": true
    },
    {
      "inputs": [],
      "name": "owner",
      "outputs": [
        {
          "internalType": "address",
          "name": "",
          "type": "address"
        }
      ],
      "stateMutability": "view",
      "type": "function",
      "constant": true
    },
    {
      "inputs": [],
      "name": "renounceOwnership",
      "outputs": [],
      "stateMutability": "nonpayable",
      "type": "function"
    },
    {
      "inputs": [
        {
          "internalType": "uint256",
          "name": "",
          "type": "uint256"
        }
      ],
      "name": "tokenList",
      "outputs": [
        {
          "internalType": "bytes32",
          "name": "",
          "type": "bytes32"
        }
      ],
      "stateMutability": "view",
      "type": "function",
      "constant": true
    },
    {
      "inputs": [
        {
          "internalType": "bytes32",
          "name": "",
          "type": "bytes32"
        }
      ],
      "name": "tokenMapping",
      "outputs": [
        {
          "internalType": "bytes32",
          "name": "ticker",
          "type": "bytes32"
        },
        {
          "internalType": "address",
          "name": "tokenAddress",
          "type": "address"
        }
      ],
      "stateMutability": "view",
      "type": "function",
      "constant": true
    },
    {
      "inputs": [
        {
          "internalType": "address",
          "name": "newOwner",
          "type": "address"
        }
      ],
      "name": "transferOwnership",
      "outputs": [],
      "stateMutability": "nonpayable",
      "type": "function"
    },
    {
      "inputs": [
        {
          "internalType": "uint256",
          "name": "amount",
          "type": "uint256"
        },
        {
          "internalType": "bytes32",
          "name": "ticker",
          "type": "bytes32"
        }
      ],
      "name": "withdraw",
      "outputs": [],
      "stateMutability": "nonpayable",
      "type": "function"
    },
    {
      "inputs": [
        {
          "internalType": "bytes32",
          "name": "ticker",
          "type": "bytes32"
        },
        {
          "internalType": "enum Dex.Side",
          "name": "side",
          "type": "uint8"
        }
      ],
      "name": "getOrderBook",
      "outputs": [
        {
          "components": [
            {
              "internalType": "uint256",
              "name": "id",
              "type": "uint256"
            },
            {
              "internalType": "address",
              "name": "trader",
              "type": "address"
            },
            {
              "internalType": "enum Dex.Side",
              "name": "side",
              "type": "uint8"
            },
            {
              "internalType": "bytes32",
              "name": "ticker",
              "type": "bytes32"
            },
            {
              "internalType": "uint256",
              "name": "amount",
              "type": "uint256"
            },
            {
              "internalType": "uint256",
              "name": "price",
              "type": "uint256"
            },
            {
              "internalType": "uint256",
              "name": "filled",
              "type": "uint256"
            }
          ],
          "internalType": "struct Dex.Order[]",
          "name": "",
          "type": "tuple[]"
        }
      ],
      "stateMutability": "view",
      "type": "function",
      "constant": true
    },
    {
      "inputs": [
        {
          "internalType": "enum Dex.Side",
          "name": "side",
          "type": "uint8"
        },
        {
          "internalType": "bytes32",
          "name": "ticker",
          "type": "bytes32"
        },
        {
          "internalType": "uint256",
          "name": "amount",
          "type": "uint256"
        },
        {
          "internalType": "uint256",
          "name": "price",
          "type": "uint256"
        }
      ],
      "name": "createLimitOrder",
      "outputs": [],
      "stateMutability": "nonpayable",
      "type": "function"
    },
    {
      "inputs": [
        {
          "internalType": "bytes32",
          "name": "ticker",
          "type": "bytes32"
        },
        {
          "internalType": "uint256",
          "name": "price",
          "type": "uint256"
        },
        {
          "internalType": "uint256",
          "name": "amount",
          "type": "uint256"
        },
        {
          "internalType": "enum Dex.Side",
          "name": "side",
          "type": "uint8"
        }
      ],
      "name": "createMarketOrder",
      "outputs": [],
      "stateMutability": "nonpayable",
      "type": "function"
    }
  ],
  "bytecode": "0x60806040523480156200001157600080fd5b5062000032620000266200003860201b60201c565b6200004060201b60201c565b62000104565b600033905090565b60008060009054906101000a900473ffffffffffffffffffffffffffffffffffffffff169050816000806101000a81548173ffffffffffffffffffffffffffffffffffffffff021916908373ffffffffffffffffffffffffffffffffffffffff1602179055508173ffffffffffffffffffffffffffffffffffffffff168173ffffffffffffffffffffffffffffffffffffffff167f8be0079c531659141344cd1fd0a4f28419497f9722a3daafe3b4186f6b6457e060405160405180910390a35050565b612b9480620001146000396000f3fe6080604052600436106100e85760003560e01c80638da5cb5b1161008a578063ba58ea6811610059578063ba58ea68146102da578063c9630cb014610317578063d0bf299a14610347578063f2fde38b14610370576100e8565b80638da5cb5b146102205780639776aacf1461024b5780639ead722214610274578063a8d2021a146102b1576100e8565b8063439370b1116100c6578063439370b114610198578063667cb4ba146101a25780636f3b62f9146101e0578063715018a614610209576100e8565b80630bb431b6146100ed5780631f14df69146101305780632a58b3301461016d575b600080fd5b3480156100f957600080fd5b50610114600480360381019061010f919061200f565b610399565b6040516101279796959493929190612138565b60405180910390f35b34801561013c57600080fd5b50610157600480360381019061015291906121d3565b610432565b6040516101649190612213565b60405180910390f35b34801561017957600080fd5b50610182610457565b60405161018f9190612213565b60405180910390f35b6101a061045d565b005b3480156101ae57600080fd5b506101c960048036038101906101c4919061222e565b610556565b6040516101d792919061225b565b60405180910390f35b3480156101ec57600080fd5b50610207600480360381019061020291906122a9565b61059a565b005b34801561021557600080fd5b5061021e610fd8565b005b34801561022c57600080fd5b50610235611060565b6040516102429190612310565b60405180910390f35b34801561025757600080fd5b50610272600480360381019061026d919061232b565b611089565b005b34801561028057600080fd5b5061029b6004803603810190610296919061236b565b6111c4565b6040516102a89190612398565b60405180910390f35b3480156102bd57600080fd5b506102d860048036038101906102d391906123b3565b6111e8565b005b3480156102e657600080fd5b5061030160048036038101906102fc91906123f3565b61145b565b60405161030e91906125ac565b60405180910390f35b610331600480360381019061032c91906123b3565b6115b4565b60405161033e9190612213565b60405180910390f35b34801561035357600080fd5b5061036e600480360381019061036991906125ce565b611828565b005b34801561037c57600080fd5b5061039760048036038101906103929190612635565b611d98565b005b600560205282600052604060002060205281600052604060002081815481106103c157600080fd5b906000526020600020906006020160009250925050508060000154908060010160009054906101000a900473ffffffffffffffffffffffffffffffffffffffff16908060010160149054906101000a900460ff16908060020154908060030154908060040154908060050154905087565b6003602052816000526040600020602052806000526040600020600091509150505481565b60045481565b6104e034600360003373ffffffffffffffffffffffffffffffffffffffff1673ffffffffffffffffffffffffffffffffffffffff16815260200190815260200160002060007f4554480000000000000000000000000000000000000000000000000000000000815260200190815260200160002054611e9090919063ffffffff16565b600360003373ffffffffffffffffffffffffffffffffffffffff1673ffffffffffffffffffffffffffffffffffffffff16815260200190815260200160002060007f4554480000000000000000000000000000000000000000000000000000000000815260200190815260200160002081905550565b60016020528060005260406000206000915090508060000154908060010160009054906101000a900473ffffffffffffffffffffffffffffffffffffffff16905082565b600060018111156105ae576105ad6120b2565b5b8460018111156105c1576105c06120b2565b5b141561065b576105da8183611ea690919063ffffffff16565b600360003373ffffffffffffffffffffffffffffffffffffffff1673ffffffffffffffffffffffffffffffffffffffff16815260200190815260200160002060007f4554480000000000000000000000000000000000000000000000000000000000815260200190815260200160002054101561065657600080fd5b6106e6565b60018081111561066e5761066d6120b2565b5b846001811115610681576106806120b2565b5b14156106e55781600360003373ffffffffffffffffffffffffffffffffffffffff1673ffffffffffffffffffffffffffffffffffffffff16815260200190815260200160002060008581526020019081526020016000205410156106e457600080fd5b5b5b60006005600085815260200190815260200160002060008660018111156107105761070f6120b2565b5b81526020019081526020016000209050806040518060e0016040528060045481526020013373ffffffffffffffffffffffffffffffffffffffff168152602001876001811115610763576107626120b2565b5b8152602001868152602001858152602001848152602001600081525090806001815401808255809150506001900390600052602060002090600602016000909190919091506000820151816000015560208201518160010160006101000a81548173ffffffffffffffffffffffffffffffffffffffff021916908373ffffffffffffffffffffffffffffffffffffffff16021790555060408201518160010160146101000a81548160ff02191690836001811115610824576108236120b2565b5b0217905550606082015181600201556080820151816003015560a0820151816004015560c082015181600501555050600081805490509050600060018111156108705761086f6120b2565b5b866001811115610883576108826120b2565b5b1415610c185760006001826108989190612691565b90505b6000811115610c1257826001826108b29190612691565b815481106108c3576108c26126c5565b5b9060005260206000209060060201600401548382815481106108e8576108e76126c5565b5b9060005260206000209060060201600401541115610bfa576000838281548110610915576109146126c5565b5b90600052602060002090600602016040518060e0016040529081600082015481526020016001820160009054906101000a900473ffffffffffffffffffffffffffffffffffffffff1673ffffffffffffffffffffffffffffffffffffffff1673ffffffffffffffffffffffffffffffffffffffff1681526020016001820160149054906101000a900460ff1660018111156109b3576109b26120b2565b5b60018111156109c5576109c46120b2565b5b8152602001600282015481526020016003820154815260200160048201548152602001600582015481525050905083600183610a019190612691565b81548110610a1257610a116126c5565b5b9060005260206000209060060201848381548110610a3357610a326126c5565b5b9060005260206000209060060201600082015481600001556001820160009054906101000a900473ffffffffffffffffffffffffffffffffffffffff168160010160006101000a81548173ffffffffffffffffffffffffffffffffffffffff021916908373ffffffffffffffffffffffffffffffffffffffff1602179055506001820160149054906101000a900460ff168160010160146101000a81548160ff02191690836001811115610aea57610ae96120b2565b5b0217905550600282015481600201556003820154816003015560048201548160040155600582015481600501559050508084600184610b299190612691565b81548110610b3a57610b396126c5565b5b90600052602060002090600602016000820151816000015560208201518160010160006101000a81548173ffffffffffffffffffffffffffffffffffffffff021916908373ffffffffffffffffffffffffffffffffffffffff16021790555060408201518160010160146101000a81548160ff02191690836001811115610bc457610bc36120b2565b5b0217905550606082015181600201556080820151816003015560a0820151816004015560c0820151816005015590505050610bff565b610c12565b8080610c0a906126f4565b91505061089b565b50610fd0565b600180811115610c2b57610c2a6120b2565b5b866001811115610c3e57610c3d6120b2565b5b1415610fcf576000600182610c539190612691565b90505b6000811115610fcd5782600182610c6d9190612691565b81548110610c7e57610c7d6126c5565b5b906000526020600020906006020160040154838281548110610ca357610ca26126c5565b5b9060005260206000209060060201600401541015610fb5576000838281548110610cd057610ccf6126c5565b5b90600052602060002090600602016040518060e0016040529081600082015481526020016001820160009054906101000a900473ffffffffffffffffffffffffffffffffffffffff1673ffffffffffffffffffffffffffffffffffffffff1673ffffffffffffffffffffffffffffffffffffffff1681526020016001820160149054906101000a900460ff166001811115610d6e57610d6d6120b2565b5b6001811115610d8057610d7f6120b2565b5b8152602001600282015481526020016003820154815260200160048201548152602001600582015481525050905083600183610dbc9190612691565b81548110610dcd57610dcc6126c5565b5b9060005260206000209060060201848381548110610dee57610ded6126c5565b5b9060005260206000209060060201600082015481600001556001820160009054906101000a900473ffffffffffffffffffffffffffffffffffffffff168160010160006101000a81548173ffffffffffffffffffffffffffffffffffffffff021916908373ffffffffffffffffffffffffffffffffffffffff1602179055506001820160149054906101000a900460ff168160010160146101000a81548160ff02191690836001811115610ea557610ea46120b2565b5b0217905550600282015481600201556003820154816003015560048201548160040155600582015481600501559050508084600184610ee49190612691565b81548110610ef557610ef46126c5565b5b90600052602060002090600602016000820151816000015560208201518160010160006101000a81548173ffffffffffffffffffffffffffffffffffffffff021916908373ffffffffffffffffffffffffffffffffffffffff16021790555060408201518160010160146101000a81548160ff02191690836001811115610f7f57610f7e6120b2565b5b0217905550606082015181600201556080820151816003015560a0820151816004015560c0820151816005015590505050610fba565b610fcd565b8080610fc5906126f4565b915050610c56565b505b5b505050505050565b610fe0611ebc565b73ffffffffffffffffffffffffffffffffffffffff16610ffe611060565b73ffffffffffffffffffffffffffffffffffffffff1614611054576040517f08c379a000000000000000000000000000000000000000000000000000000000815260040161104b9061277b565b60405180910390fd5b61105e6000611ec4565b565b60008060009054906101000a900473ffffffffffffffffffffffffffffffffffffffff16905090565b611091611ebc565b73ffffffffffffffffffffffffffffffffffffffff166110af611060565b73ffffffffffffffffffffffffffffffffffffffff1614611105576040517f08c379a00000000000000000000000000000000000000000000000000000000081526004016110fc9061277b565b60405180910390fd5b60405180604001604052808381526020018273ffffffffffffffffffffffffffffffffffffffff16815250600160008481526020019081526020016000206000820151816000015560208201518160010160006101000a81548173ffffffffffffffffffffffffffffffffffffffff021916908373ffffffffffffffffffffffffffffffffffffffff16021790555090505060028290806001815401808255809150506001900390600052602060002001600090919091909150555050565b600281815481106111d457600080fd5b906000526020600020016000915090505481565b600073ffffffffffffffffffffffffffffffffffffffff166001600083815260200190815260200160002060010160009054906101000a900473ffffffffffffffffffffffffffffffffffffffff1673ffffffffffffffffffffffffffffffffffffffff16141561125857600080fd5b81600360003373ffffffffffffffffffffffffffffffffffffffff1673ffffffffffffffffffffffffffffffffffffffff16815260200190815260200160002060008381526020019081526020016000205410156112eb576040517f08c379a00000000000000000000000000000000000000000000000000000000081526004016112e2906127e7565b60405180910390fd5b61134e82600360003373ffffffffffffffffffffffffffffffffffffffff1673ffffffffffffffffffffffffffffffffffffffff168152602001908152602001600020600084815260200190815260200160002054611f8890919063ffffffff16565b600360003373ffffffffffffffffffffffffffffffffffffffff1673ffffffffffffffffffffffffffffffffffffffff1681526020019081526020016000206000838152602001908152602001600020819055506001600082815260200190815260200160002060010160009054906101000a900473ffffffffffffffffffffffffffffffffffffffff1673ffffffffffffffffffffffffffffffffffffffff1663a9059cbb33846040518363ffffffff1660e01b8152600401611413929190612807565b6020604051808303816000875af1158015611432573d6000803e3d6000fd5b505050506040513d601f19601f820116820180604052508101906114569190612868565b505050565b6060600560008481526020019081526020016000206000836001811115611485576114846120b2565b5b8152602001908152602001600020805480602002602001604051908101604052809291908181526020016000905b828210156115a857838290600052602060002090600602016040518060e0016040529081600082015481526020016001820160009054906101000a900473ffffffffffffffffffffffffffffffffffffffff1673ffffffffffffffffffffffffffffffffffffffff1673ffffffffffffffffffffffffffffffffffffffff1681526020016001820160149054906101000a900460ff16600181111561155b5761155a6120b2565b5b600181111561156d5761156c6120b2565b5b8152602001600282015481526020016003820154815260200160048201548152602001600582015481525050815260200190600101906114b3565b50505050905092915050565b600081600073ffffffffffffffffffffffffffffffffffffffff166001600083815260200190815260200160002060010160009054906101000a900473ffffffffffffffffffffffffffffffffffffffff1673ffffffffffffffffffffffffffffffffffffffff16141561165d576040517f08c379a0000000000000000000000000000000000000000000000000000000008152600401611654906128e1565b60405180910390fd5b6001600084815260200190815260200160002060010160009054906101000a900473ffffffffffffffffffffffffffffffffffffffff1673ffffffffffffffffffffffffffffffffffffffff166323b872dd3330876040518463ffffffff1660e01b81526004016116d093929190612901565b6020604051808303816000875af11580156116ef573d6000803e3d6000fd5b505050506040513d601f19601f820116820180604052508101906117139190612868565b5083600360003373ffffffffffffffffffffffffffffffffffffffff1673ffffffffffffffffffffffffffffffffffffffff168152602001908152602001600020600085815260200190815260200160002060008282546117749190612938565b925050819055600360003373ffffffffffffffffffffffffffffffffffffffff1673ffffffffffffffffffffffffffffffffffffffff168152602001908152602001600020600085815260200190815260200160002081905550600360003373ffffffffffffffffffffffffffffffffffffffff1673ffffffffffffffffffffffffffffffffffffffff16815260200190815260200160002060008481526020019081526020016000205491505092915050565b600080600181111561183d5761183c6120b2565b5b8260018111156118505761184f6120b2565b5b14156119125782600360003373ffffffffffffffffffffffffffffffffffffffff1673ffffffffffffffffffffffffffffffffffffffff16815260200190815260200160002060007f45544800000000000000000000000000000000000000000000000000000000008152602001908152602001600020541015611909576040517f08c379a0000000000000000000000000000000000000000000000000000000008152600401611900906129da565b60405180910390fd5b600190506119aa565b82600360003373ffffffffffffffffffffffffffffffffffffffff1673ffffffffffffffffffffffffffffffffffffffff16815260200190815260200160002060008781526020019081526020016000205410156119a5576040517f08c379a000000000000000000000000000000000000000000000000000000000815260040161199c906129da565b60405180910390fd5b600090505b60006005600087815260200190815260200160002060008381526020019081526020016000209050600080600090505b8280549050811080156119ec57508582105b15611b43576000611a068388611f8890919063ffffffff16565b90506000611a65858481548110611a2057611a1f6126c5565b5b906000526020600020906006020160050154868581548110611a4557611a446126c5565b5b906000526020600020906006020160030154611f8890919063ffffffff16565b9050600082821115611a7957829050611a7d565b8190505b611a908186611e9090919063ffffffff16565b9450611ac981878681548110611aa957611aa86126c5565b5b906000526020600020906006020160050154611e9090919063ffffffff16565b868581548110611adc57611adb6126c5565b5b9060005260206000209060060201600501819055506000611b2a878681548110611b0957611b086126c5565b5b90600052602060002090600602016004015483611ea690919063ffffffff16565b9050505050508080611b3b906129fa565b9150506119da565b505b60008280549050118015611ba2575081600081548110611b6857611b676126c5565b5b90600052602060002090600602016003015482600081548110611b8e57611b8d6126c5565b5b906000526020600020906006020160050154145b15611d8f5760005b60018380549050611bbb9190612691565b811015611cfc5782600182611bd09190612938565b81548110611be157611be06126c5565b5b9060005260206000209060060201838281548110611c0257611c016126c5565b5b9060005260206000209060060201600082015481600001556001820160009054906101000a900473ffffffffffffffffffffffffffffffffffffffff168160010160006101000a81548173ffffffffffffffffffffffffffffffffffffffff021916908373ffffffffffffffffffffffffffffffffffffffff1602179055506001820160149054906101000a900460ff168160010160146101000a81548160ff02191690836001811115611cb957611cb86120b2565b5b0217905550600282015481600201556003820154816003015560048201548160040155600582015481600501559050508080611cf4906129fa565b915050611baa565b5081805480611d0e57611d0d612a43565b5b60019003818190600052602060002090600602016000808201600090556001820160006101000a81549073ffffffffffffffffffffffffffffffffffffffff02191690556001820160146101000a81549060ff0219169055600282016000905560038201600090556004820160009055600582016000905550509055611b45565b50505050505050565b611da0611ebc565b73ffffffffffffffffffffffffffffffffffffffff16611dbe611060565b73ffffffffffffffffffffffffffffffffffffffff1614611e14576040517f08c379a0000000000000000000000000000000000000000000000000000000008152600401611e0b9061277b565b60405180910390fd5b600073ffffffffffffffffffffffffffffffffffffffff168173ffffffffffffffffffffffffffffffffffffffff161415611e84576040517f08c379a0000000000000000000000000000000000000000000000000000000008152600401611e7b90612ae4565b60405180910390fd5b611e8d81611ec4565b50565b60008183611e9e9190612938565b905092915050565b60008183611eb49190612b04565b905092915050565b600033905090565b60008060009054906101000a900473ffffffffffffffffffffffffffffffffffffffff169050816000806101000a81548173ffffffffffffffffffffffffffffffffffffffff021916908373ffffffffffffffffffffffffffffffffffffffff1602179055508173ffffffffffffffffffffffffffffffffffffffff168173ffffffffffffffffffffffffffffffffffffffff167f8be0079c531659141344cd1fd0a4f28419497f9722a3daafe3b4186f6b6457e060405160405180910390a35050565b60008183611f969190612691565b905092915050565b600080fd5b6000819050919050565b611fb681611fa3565b8114611fc157600080fd5b50565b600081359050611fd381611fad565b92915050565b6000819050919050565b611fec81611fd9565b8114611ff757600080fd5b50565b60008135905061200981611fe3565b92915050565b60008060006060848603121561202857612027611f9e565b5b600061203686828701611fc4565b935050602061204786828701611ffa565b925050604061205886828701611ffa565b9150509250925092565b61206b81611fd9565b82525050565b600073ffffffffffffffffffffffffffffffffffffffff82169050919050565b600061209c82612071565b9050919050565b6120ac81612091565b82525050565b7f4e487b7100000000000000000000000000000000000000000000000000000000600052602160045260246000fd5b600281106120f2576120f16120b2565b5b50565b6000819050612103826120e1565b919050565b6000612113826120f5565b9050919050565b61212381612108565b82525050565b61213281611fa3565b82525050565b600060e08201905061214d600083018a612062565b61215a60208301896120a3565b612167604083018861211a565b6121746060830187612129565b6121816080830186612062565b61218e60a0830185612062565b61219b60c0830184612062565b98975050505050505050565b6121b081612091565b81146121bb57600080fd5b50565b6000813590506121cd816121a7565b92915050565b600080604083850312156121ea576121e9611f9e565b5b60006121f8858286016121be565b925050602061220985828601611fc4565b9150509250929050565b60006020820190506122286000830184612062565b92915050565b60006020828403121561224457612243611f9e565b5b600061225284828501611fc4565b91505092915050565b60006040820190506122706000830185612129565b61227d60208301846120a3565b9392505050565b6002811061229157600080fd5b50565b6000813590506122a381612284565b92915050565b600080600080608085870312156122c3576122c2611f9e565b5b60006122d187828801612294565b94505060206122e287828801611fc4565b93505060406122f387828801611ffa565b925050606061230487828801611ffa565b91505092959194509250565b600060208201905061232560008301846120a3565b92915050565b6000806040838503121561234257612341611f9e565b5b600061235085828601611fc4565b9250506020612361858286016121be565b9150509250929050565b60006020828403121561238157612380611f9e565b5b600061238f84828501611ffa565b91505092915050565b60006020820190506123ad6000830184612129565b92915050565b600080604083850312156123ca576123c9611f9e565b5b60006123d885828601611ffa565b92505060206123e985828601611fc4565b9150509250929050565b6000806040838503121561240a57612409611f9e565b5b600061241885828601611fc4565b925050602061242985828601612294565b9150509250929050565b600081519050919050565b600082825260208201905092915050565b6000819050602082019050919050565b61246881611fd9565b82525050565b61247781612091565b82525050565b61248681612108565b82525050565b61249581611fa3565b82525050565b60e0820160008201516124b1600085018261245f565b5060208201516124c4602085018261246e565b5060408201516124d7604085018261247d565b5060608201516124ea606085018261248c565b5060808201516124fd608085018261245f565b5060a082015161251060a085018261245f565b5060c082015161252360c085018261245f565b50505050565b6000612535838361249b565b60e08301905092915050565b6000602082019050919050565b600061255982612433565b612563818561243e565b935061256e8361244f565b8060005b8381101561259f5781516125868882612529565b975061259183612541565b925050600181019050612572565b5085935050505092915050565b600060208201905081810360008301526125c6818461254e565b905092915050565b600080600080608085870312156125e8576125e7611f9e565b5b60006125f687828801611fc4565b945050602061260787828801611ffa565b935050604061261887828801611ffa565b925050606061262987828801612294565b91505092959194509250565b60006020828403121561264b5761264a611f9e565b5b6000612659848285016121be565b91505092915050565b7f4e487b7100000000000000000000000000000000000000000000000000000000600052601160045260246000fd5b600061269c82611fd9565b91506126a783611fd9565b9250828210156126ba576126b9612662565b5b828203905092915050565b7f4e487b7100000000000000000000000000000000000000000000000000000000600052603260045260246000fd5b60006126ff82611fd9565b9150600082141561271357612712612662565b5b600182039050919050565b600082825260208201905092915050565b7f4f776e61626c653a2063616c6c6572206973206e6f7420746865206f776e6572600082015250565b600061276560208361271e565b91506127708261272f565b602082019050919050565b6000602082019050818103600083015261279481612758565b9050919050565b7f4e6f7420656e6f7567682062616c616e63652e00000000000000000000000000600082015250565b60006127d160138361271e565b91506127dc8261279b565b602082019050919050565b60006020820190508181036000830152612800816127c4565b9050919050565b600060408201905061281c60008301856120a3565b6128296020830184612062565b9392505050565b60008115159050919050565b61284581612830565b811461285057600080fd5b50565b6000815190506128628161283c565b92915050565b60006020828403121561287e5761287d611f9e565b5b600061288c84828501612853565b91505092915050565b7f546f6b656e20646f6573206e6f742065786973742e0000000000000000000000600082015250565b60006128cb60158361271e565b91506128d682612895565b602082019050919050565b600060208201905081810360008301526128fa816128be565b9050919050565b600060608201905061291660008301866120a3565b61292360208301856120a3565b6129306040830184612062565b949350505050565b600061294382611fd9565b915061294e83611fd9565b9250827fffffffffffffffffffffffffffffffffffffffffffffffffffffffffffffffff0382111561298357612982612662565b5b828201905092915050565b7f4e6f7420656e6f7567682062616c616e63650000000000000000000000000000600082015250565b60006129c460128361271e565b91506129cf8261298e565b602082019050919050565b600060208201905081810360008301526129f3816129b7565b9050919050565b6000612a0582611fd9565b91507fffffffffffffffffffffffffffffffffffffffffffffffffffffffffffffffff821415612a3857612a37612662565b5b600182019050919050565b7f4e487b7100000000000000000000000000000000000000000000000000000000600052603160045260246000fd5b7f4f776e61626c653a206e6577206f776e657220697320746865207a65726f206160008201527f6464726573730000000000000000000000000000000000000000000000000000602082015250565b6000612ace60268361271e565b9150612ad982612a72565b604082019050919050565b60006020820190508181036000830152612afd81612ac1565b9050919050565b6000612b0f82611fd9565b9150612b1a83611fd9565b9250817fffffffffffffffffffffffffffffffffffffffffffffffffffffffffffffffff0483118215151615612b5357612b52612662565b5b82820290509291505056fea26469706673582212202a817b84add8e16bd4cf1af75a9351e94ebc1cf371e2375503dfbd0e5f6ca8eb64736f6c634300080a0033",
  "immutableReferences": {},
  "source": "pragma solidity 0.8.10;\r\npragma experimental ABIEncoderV2;\r\nimport \"../contracts/Wallet.sol\";\r\n\r\ncontract Dex is Wallet {\r\n    \r\n    uint public nextOrderId;\r\n\r\n    using SafeMath for uint256;\r\n\r\n    enum Side {\r\n        BUY,\r\n        SELL\r\n    }\r\n    struct Order {\r\n        uint id;\r\n        address trader;\r\n        Side side;\r\n        bytes32 ticker;\r\n        uint amount;\r\n        uint price;\r\n        uint filled;\r\n    }\r\n\r\n    mapping(bytes32 => mapping(uint => Order[])) public orderBook;\r\n\r\n    function getOrderBook(bytes32 ticker, Side side) view public returns (Order[] memory) {\r\n         return orderBook[ticker][uint(side)];\r\n    }\r\n    \r\n    \r\n    function createLimitOrder(Side side, bytes32 ticker, uint amount, uint price) public {\r\n        if(side == Side.BUY){\r\n            require(balances[msg.sender][\"ETH\"] >= amount.mul(price));\r\n        }\r\n        else if(side == Side.SELL){\r\n            require(balances[msg.sender][ticker] >= amount);\r\n        }\r\n\r\n        Order[] storage orders = orderBook[ticker][uint(side)];\r\n        orders.push(Order(nextOrderId, msg.sender, side, ticker, amount, price, 0));\r\n\r\n        //Bubble sort\r\n        uint o = orders.length;\r\n\r\n        if(side == Side.BUY) {\r\n            for (uint i=o-1;i>0;i--){\r\n            if(orders[i].price > orders[i-1].price) {\r\n            Order memory ordswitch = orders[i];\r\n            orders[i] = orders[i-1];\r\n            orders[i-1] = ordswitch;\r\n            }else{\r\n                break;\r\n            }\r\n            }\r\n       \r\n        }  \r\n        else if(side == Side.SELL){\r\n            for (uint i=o-1;i>0;i--){\r\n            if(orders[i].price < orders[i-1].price) {\r\n            Order memory ordswitch = orders[i];\r\n            orders[i] = orders[i-1];\r\n            orders[i-1] = ordswitch;\r\n            }else{\r\n                break;\r\n            }\r\n            }\r\n        }\r\n    }\r\n\r\n    function createMarketOrder(bytes32 ticker, uint price, uint amount, Side side) public {\r\n           uint orderBookSide;\r\n           if(side == Side.BUY){\r\n               require(balances[msg.sender][\"ETH\"] >= amount, \"Not enough balance\");\r\n               orderBookSide = 1;\r\n           }\r\n           else{\r\n               require(balances[msg.sender][ticker] >= amount, \"Not enough balance\");\r\n               orderBookSide = 0;\r\n           }\r\n           Order[] storage orders = orderBook[ticker][orderBookSide];\r\n           \r\n           uint totalFilled;\r\n\r\n           for (uint256 i = 0; i < orders.length && totalFilled < amount; i++) {\r\n               uint leftToFill = amount.sub(totalFilled);\r\n               uint availableToFill = orders[i].amount.sub(orders[i].filled);\r\n               uint filled = 0;\r\n               if(availableToFill > leftToFill) {\r\n                   filled = leftToFill;\r\n               }\r\n               else{\r\n                   filled = availableToFill;\r\n               }\r\n\r\n               totalFilled = totalFilled.add(filled);\r\n               orders[i].filled = orders[i].filled.add(filled);\r\n               uint cost = filled.mul(orders[i].price);\r\n           }\r\n           \r\n        while(orders.length > 0 && orders[0].filled == orders[0].amount){\r\n               // Overwrite the top element with the next element in the list of orders \r\n               for (uint256 i = 0; i < orders.length - 1; i++) {\r\n                   orders[i] = orders[i + 1];\r\n               }\r\n            orders.pop();\r\n        }\r\n    }\r\n}",
  "sourcePath": "C:\\Users\\HP Elitebook\\Documents\\ethereum-201\\dex\\contracts\\dex.sol",
  "compiler": {
    "name": "solc",
    "version": "0.8.10+commit.fc410830.Emscripten.clang"
  },
  "schemaVersion": "3.4.3",
  "updatedAt": "2021-11-28T17:31:17.022Z",
  "networkType": "ethereum",
  "devdoc": {
    "kind": "dev",
    "methods": {
      "owner()": {
        "details": "Returns the address of the current owner."
      },
      "renounceOwnership()": {
        "details": "Leaves the contract without owner. It will not be possible to call `onlyOwner` functions anymore. Can only be called by the current owner. NOTE: Renouncing ownership will leave the contract without an owner, thereby removing any functionality that is only available to the owner."
      },
      "transferOwnership(address)": {
        "details": "Transfers ownership of the contract to a new account (`newOwner`). Can only be called by the current owner."
      }
    },
    "version": 1
  },
  "userdoc": {
    "kind": "user",
    "methods": {},
    "version": 1
  }
}