{
  "contractName": "Wallet",
  "abi": [
    {
      "anonymous": false,
      "inputs": [
        {
          "indexed": true,
          "internalType": "address",
          "name": "previousOwner",
          "type": "address"
        },
        {
          "indexed": true,
          "internalType": "address",
          "name": "newOwner",
          "type": "address"
        }
      ],
      "name": "OwnershipTransferred",
      "type": "event"
    },
    {
      "inputs": [
        {
          "internalType": "address",
          "name": "",
          "type": "address"
        },
        {
          "internalType": "bytes32",
          "name": "",
          "type": "bytes32"
        }
      ],
      "name": "balances",
      "outputs": [
        {
          "internalType": "uint256",
          "name": "",
          "type": "uint256"
        }
      ],
      "stateMutability": "view",
      "type": "function",
      "constant": true
    },
    {
      "inputs": [],
      "name": "owner",
      "outputs": [
        {
          "internalType": "address",
          "name": "",
          "type": "address"
        }
      ],
      "stateMutability": "view",
      "type": "function",
      "constant": true
    },
    {
      "inputs": [],
      "name": "renounceOwnership",
      "outputs": [],
      "stateMutability": "nonpayable",
      "type": "function"
    },
    {
      "inputs": [
        {
          "internalType": "uint256",
          "name": "",
          "type": "uint256"
        }
      ],
      "name": "tokenList",
      "outputs": [
        {
          "internalType": "bytes32",
          "name": "",
          "type": "bytes32"
        }
      ],
      "stateMutability": "view",
      "type": "function",
      "constant": true
    },
    {
      "inputs": [
        {
          "internalType": "bytes32",
          "name": "",
          "type": "bytes32"
        }
      ],
      "name": "tokenMapping",
      "outputs": [
        {
          "internalType": "bytes32",
          "name": "ticker",
          "type": "bytes32"
        },
        {
          "internalType": "address",
          "name": "tokenAddress",
          "type": "address"
        }
      ],
      "stateMutability": "view",
      "type": "function",
      "constant": true
    },
    {
      "inputs": [
        {
          "internalType": "address",
          "name": "newOwner",
          "type": "address"
        }
      ],
      "name": "transferOwnership",
      "outputs": [],
      "stateMutability": "nonpayable",
      "type": "function"
    },
    {
      "inputs": [
        {
          "internalType": "bytes32",
          "name": "ticker",
          "type": "bytes32"
        },
        {
          "internalType": "address",
          "name": "tokenAddress",
          "type": "address"
        }
      ],
      "name": "addToken",
      "outputs": [],
      "stateMutability": "nonpayable",
      "type": "function"
    },
    {
      "inputs": [
        {
          "internalType": "uint256",
          "name": "amount",
          "type": "uint256"
        },
        {
          "internalType": "bytes32",
          "name": "ticker",
          "type": "bytes32"
        }
      ],
      "name": "deposit",
      "outputs": [
        {
          "internalType": "uint256",
          "name": "",
          "type": "uint256"
        }
      ],
      "stateMutability": "payable",
      "type": "function",
      "payable": true
    },
    {
      "inputs": [],
      "name": "depositEth",
      "outputs": [],
      "stateMutability": "payable",
      "type": "function",
      "payable": true
    },
    {
      "inputs": [
        {
          "internalType": "uint256",
          "name": "amount",
          "type": "uint256"
        },
        {
          "internalType": "bytes32",
          "name": "ticker",
          "type": "bytes32"
        }
      ],
      "name": "withdraw",
      "outputs": [],
      "stateMutability": "nonpayable",
      "type": "function"
    }
  ],
  "bytecode": "0x608060405234801561001057600080fd5b5061002d61002261003260201b60201c565b61003a60201b60201c565b6100fe565b600033905090565b60008060009054906101000a900473ffffffffffffffffffffffffffffffffffffffff169050816000806101000a81548173ffffffffffffffffffffffffffffffffffffffff021916908373ffffffffffffffffffffffffffffffffffffffff1602179055508173ffffffffffffffffffffffffffffffffffffffff168173ffffffffffffffffffffffffffffffffffffffff167f8be0079c531659141344cd1fd0a4f28419497f9722a3daafe3b4186f6b6457e060405160405180910390a35050565b6112e68061010d6000396000f3fe6080604052600436106100915760003560e01c80639776aacf116100595780639776aacf1461015d5780639ead722214610186578063a8d2021a146101c3578063c9630cb0146101ec578063f2fde38b1461021c57610091565b80631f14df6914610096578063439370b1146100d3578063667cb4ba146100dd578063715018a61461011b5780638da5cb5b14610132575b600080fd5b3480156100a257600080fd5b506100bd60048036038101906100b89190610d27565b610245565b6040516100ca9190610d80565b60405180910390f35b6100db61026a565b005b3480156100e957600080fd5b5061010460048036038101906100ff9190610d9b565b610363565b604051610112929190610de6565b60405180910390f35b34801561012757600080fd5b506101306103a7565b005b34801561013e57600080fd5b5061014761042f565b6040516101549190610e0f565b60405180910390f35b34801561016957600080fd5b50610184600480360381019061017f9190610e2a565b610458565b005b34801561019257600080fd5b506101ad60048036038101906101a89190610e96565b610593565b6040516101ba9190610ec3565b60405180910390f35b3480156101cf57600080fd5b506101ea60048036038101906101e59190610ede565b6105b7565b005b61020660048036038101906102019190610ede565b61082a565b6040516102139190610d80565b60405180910390f35b34801561022857600080fd5b50610243600480360381019061023e9190610f1e565b610a9e565b005b6003602052816000526040600020602052806000526040600020600091509150505481565b6102ed34600360003373ffffffffffffffffffffffffffffffffffffffff1673ffffffffffffffffffffffffffffffffffffffff16815260200190815260200160002060007f4554480000000000000000000000000000000000000000000000000000000000815260200190815260200160002054610b9690919063ffffffff16565b600360003373ffffffffffffffffffffffffffffffffffffffff1673ffffffffffffffffffffffffffffffffffffffff16815260200190815260200160002060007f4554480000000000000000000000000000000000000000000000000000000000815260200190815260200160002081905550565b60016020528060005260406000206000915090508060000154908060010160009054906101000a900473ffffffffffffffffffffffffffffffffffffffff16905082565b6103af610bac565b73ffffffffffffffffffffffffffffffffffffffff166103cd61042f565b73ffffffffffffffffffffffffffffffffffffffff1614610423576040517f08c379a000000000000000000000000000000000000000000000000000000000815260040161041a90610fa8565b60405180910390fd5b61042d6000610bb4565b565b60008060009054906101000a900473ffffffffffffffffffffffffffffffffffffffff16905090565b610460610bac565b73ffffffffffffffffffffffffffffffffffffffff1661047e61042f565b73ffffffffffffffffffffffffffffffffffffffff16146104d4576040517f08c379a00000000000000000000000000000000000000000000000000000000081526004016104cb90610fa8565b60405180910390fd5b60405180604001604052808381526020018273ffffffffffffffffffffffffffffffffffffffff16815250600160008481526020019081526020016000206000820151816000015560208201518160010160006101000a81548173ffffffffffffffffffffffffffffffffffffffff021916908373ffffffffffffffffffffffffffffffffffffffff16021790555090505060028290806001815401808255809150506001900390600052602060002001600090919091909150555050565b600281815481106105a357600080fd5b906000526020600020016000915090505481565b600073ffffffffffffffffffffffffffffffffffffffff166001600083815260200190815260200160002060010160009054906101000a900473ffffffffffffffffffffffffffffffffffffffff1673ffffffffffffffffffffffffffffffffffffffff16141561062757600080fd5b81600360003373ffffffffffffffffffffffffffffffffffffffff1673ffffffffffffffffffffffffffffffffffffffff16815260200190815260200160002060008381526020019081526020016000205410156106ba576040517f08c379a00000000000000000000000000000000000000000000000000000000081526004016106b190611014565b60405180910390fd5b61071d82600360003373ffffffffffffffffffffffffffffffffffffffff1673ffffffffffffffffffffffffffffffffffffffff168152602001908152602001600020600084815260200190815260200160002054610c7890919063ffffffff16565b600360003373ffffffffffffffffffffffffffffffffffffffff1673ffffffffffffffffffffffffffffffffffffffff1681526020019081526020016000206000838152602001908152602001600020819055506001600082815260200190815260200160002060010160009054906101000a900473ffffffffffffffffffffffffffffffffffffffff1673ffffffffffffffffffffffffffffffffffffffff1663a9059cbb33846040518363ffffffff1660e01b81526004016107e2929190611034565b6020604051808303816000875af1158015610801573d6000803e3d6000fd5b505050506040513d601f19601f820116820180604052508101906108259190611095565b505050565b600081600073ffffffffffffffffffffffffffffffffffffffff166001600083815260200190815260200160002060010160009054906101000a900473ffffffffffffffffffffffffffffffffffffffff1673ffffffffffffffffffffffffffffffffffffffff1614156108d3576040517f08c379a00000000000000000000000000000000000000000000000000000000081526004016108ca9061110e565b60405180910390fd5b6001600084815260200190815260200160002060010160009054906101000a900473ffffffffffffffffffffffffffffffffffffffff1673ffffffffffffffffffffffffffffffffffffffff166323b872dd3330876040518463ffffffff1660e01b81526004016109469392919061112e565b6020604051808303816000875af1158015610965573d6000803e3d6000fd5b505050506040513d601f19601f820116820180604052508101906109899190611095565b5083600360003373ffffffffffffffffffffffffffffffffffffffff1673ffffffffffffffffffffffffffffffffffffffff168152602001908152602001600020600085815260200190815260200160002060008282546109ea9190611194565b925050819055600360003373ffffffffffffffffffffffffffffffffffffffff1673ffffffffffffffffffffffffffffffffffffffff168152602001908152602001600020600085815260200190815260200160002081905550600360003373ffffffffffffffffffffffffffffffffffffffff1673ffffffffffffffffffffffffffffffffffffffff16815260200190815260200160002060008481526020019081526020016000205491505092915050565b610aa6610bac565b73ffffffffffffffffffffffffffffffffffffffff16610ac461042f565b73ffffffffffffffffffffffffffffffffffffffff1614610b1a576040517f08c379a0000000000000000000000000000000000000000000000000000000008152600401610b1190610fa8565b60405180910390fd5b600073ffffffffffffffffffffffffffffffffffffffff168173ffffffffffffffffffffffffffffffffffffffff161415610b8a576040517f08c379a0000000000000000000000000000000000000000000000000000000008152600401610b819061125c565b60405180910390fd5b610b9381610bb4565b50565b60008183610ba49190611194565b905092915050565b600033905090565b60008060009054906101000a900473ffffffffffffffffffffffffffffffffffffffff169050816000806101000a81548173ffffffffffffffffffffffffffffffffffffffff021916908373ffffffffffffffffffffffffffffffffffffffff1602179055508173ffffffffffffffffffffffffffffffffffffffff168173ffffffffffffffffffffffffffffffffffffffff167f8be0079c531659141344cd1fd0a4f28419497f9722a3daafe3b4186f6b6457e060405160405180910390a35050565b60008183610c86919061127c565b905092915050565b600080fd5b600073ffffffffffffffffffffffffffffffffffffffff82169050919050565b6000610cbe82610c93565b9050919050565b610cce81610cb3565b8114610cd957600080fd5b50565b600081359050610ceb81610cc5565b92915050565b6000819050919050565b610d0481610cf1565b8114610d0f57600080fd5b50565b600081359050610d2181610cfb565b92915050565b60008060408385031215610d3e57610d3d610c8e565b5b6000610d4c85828601610cdc565b9250506020610d5d85828601610d12565b9150509250929050565b6000819050919050565b610d7a81610d67565b82525050565b6000602082019050610d956000830184610d71565b92915050565b600060208284031215610db157610db0610c8e565b5b6000610dbf84828501610d12565b91505092915050565b610dd181610cf1565b82525050565b610de081610cb3565b82525050565b6000604082019050610dfb6000830185610dc8565b610e086020830184610dd7565b9392505050565b6000602082019050610e246000830184610dd7565b92915050565b60008060408385031215610e4157610e40610c8e565b5b6000610e4f85828601610d12565b9250506020610e6085828601610cdc565b9150509250929050565b610e7381610d67565b8114610e7e57600080fd5b50565b600081359050610e9081610e6a565b92915050565b600060208284031215610eac57610eab610c8e565b5b6000610eba84828501610e81565b91505092915050565b6000602082019050610ed86000830184610dc8565b92915050565b60008060408385031215610ef557610ef4610c8e565b5b6000610f0385828601610e81565b9250506020610f1485828601610d12565b9150509250929050565b600060208284031215610f3457610f33610c8e565b5b6000610f4284828501610cdc565b91505092915050565b600082825260208201905092915050565b7f4f776e61626c653a2063616c6c6572206973206e6f7420746865206f776e6572600082015250565b6000610f92602083610f4b565b9150610f9d82610f5c565b602082019050919050565b60006020820190508181036000830152610fc181610f85565b9050919050565b7f4e6f7420656e6f7567682062616c616e63652e00000000000000000000000000600082015250565b6000610ffe601383610f4b565b915061100982610fc8565b602082019050919050565b6000602082019050818103600083015261102d81610ff1565b9050919050565b60006040820190506110496000830185610dd7565b6110566020830184610d71565b9392505050565b60008115159050919050565b6110728161105d565b811461107d57600080fd5b50565b60008151905061108f81611069565b92915050565b6000602082840312156110ab576110aa610c8e565b5b60006110b984828501611080565b91505092915050565b7f546f6b656e20646f6573206e6f742065786973742e0000000000000000000000600082015250565b60006110f8601583610f4b565b9150611103826110c2565b602082019050919050565b60006020820190508181036000830152611127816110eb565b9050919050565b60006060820190506111436000830186610dd7565b6111506020830185610dd7565b61115d6040830184610d71565b949350505050565b7f4e487b7100000000000000000000000000000000000000000000000000000000600052601160045260246000fd5b600061119f82610d67565b91506111aa83610d67565b9250827fffffffffffffffffffffffffffffffffffffffffffffffffffffffffffffffff038211156111df576111de611165565b5b828201905092915050565b7f4f776e61626c653a206e6577206f776e657220697320746865207a65726f206160008201527f6464726573730000000000000000000000000000000000000000000000000000602082015250565b6000611246602683610f4b565b9150611251826111ea565b604082019050919050565b6000602082019050818103600083015261127581611239565b9050919050565b600061128782610d67565b915061129283610d67565b9250828210156112a5576112a4611165565b5b82820390509291505056fea264697066735822122031bbe642cd12e817d855635b8a9c7e5063448a842f83a0237cf8ab759ac171d364736f6c634300080a0033",
  "immutableReferences": {},
  "source": "pragma solidity 0.8.10;\r\n\r\nimport \"../node_modules/@openzeppelin/contracts/token/ERC20/IERC20.sol\";\r\nimport \"../node_modules/@openzeppelin/contracts/utils/math/SafeMath.sol\";\r\nimport \"../node_modules/@openzeppelin/contracts/access/Ownable.sol\";\r\n\r\ncontract Wallet is Ownable {\r\n      using SafeMath for uint256;\r\n\r\n      struct Token {\r\n          bytes32 ticker;\r\n          address tokenAddress;\r\n      }\r\n      mapping(bytes32 => Token) public tokenMapping;\r\n      bytes32[] public tokenList;\r\n\r\n      mapping(address => mapping(bytes32 => uint256)) public balances;\r\n\r\n      modifier tokenExist(bytes32 ticker){\r\n          require(tokenMapping[ticker].tokenAddress != address(0), \"Token does not exist.\");\r\n          _;\r\n      }\r\n      function addToken(bytes32 ticker, address tokenAddress) onlyOwner external {\r\n          tokenMapping[ticker] = Token(ticker, tokenAddress);\r\n          tokenList.push(ticker);\r\n      }\r\n\r\n      function deposit(uint amount, bytes32 ticker) tokenExist(ticker) external payable returns (uint) {\r\n          IERC20(tokenMapping[ticker].tokenAddress).transferFrom(msg.sender, address(this), amount);\r\n          balances[msg.sender][ticker] = balances[msg.sender][ticker] += amount;\r\n          return balances[msg.sender][ticker];\r\n      }\r\n      function depositEth() payable public {\r\n\r\n        balances[msg.sender][bytes32(\"ETH\")] = balances[msg.sender][bytes32(\"ETH\")].add(msg.value);\r\n\r\n    }\r\n      \r\n      function withdraw(uint amount, bytes32 ticker) external {\r\n          require(tokenMapping[ticker].tokenAddress != address(0));\r\n          require(balances[msg.sender][ticker] >= amount, \"Not enough balance.\");\r\n    \r\n          balances[msg.sender][ticker] = balances[msg.sender][ticker].sub(amount);\r\n       \r\n          IERC20(tokenMapping[ticker].tokenAddress).transfer(msg.sender, amount);\r\n\r\n      }\r\n}",
  "sourcePath": "C:\\Users\\HP Elitebook\\Documents\\ethereum-201\\dex\\contracts\\Wallet.sol",
  "compiler": {
    "name": "solc",
    "version": "0.8.10+commit.fc410830.Emscripten.clang"
  },
  "schemaVersion": "3.4.3",
  "updatedAt": "2021-11-28T17:31:23.867Z",
  "networkType": "ethereum",
  "devdoc": {
    "kind": "dev",
    "methods": {
      "owner()": {
        "details": "Returns the address of the current owner."
      },
      "renounceOwnership()": {
        "details": "Leaves the contract without owner. It will not be possible to call `onlyOwner` functions anymore. Can only be called by the current owner. NOTE: Renouncing ownership will leave the contract without an owner, thereby removing any functionality that is only available to the owner."
      },
      "transferOwnership(address)": {
        "details": "Transfers ownership of the contract to a new account (`newOwner`). Can only be called by the current owner."
      }
    },
    "version": 1
  },
  "userdoc": {
    "kind": "user",
    "methods": {},
    "version": 1
  }
}